{
  "address": "0xfa04a138e4B0128D890634098BE5960cF153b634",
  "abi": [
    {
      "inputs": [],
      "stateMutability": "nonpayable",
      "type": "constructor"
    },
    {
      "inputs": [
        {
          "internalType": "address",
          "name": "_tokenContract",
          "type": "address"
        },
        {
          "internalType": "address",
          "name": "_tokenOwner",
          "type": "address"
        },
        {
          "internalType": "address[]",
          "name": "_recipients",
          "type": "address[]"
        },
        {
          "internalType": "uint256",
          "name": "_tokenId",
          "type": "uint256"
        },
        {
          "internalType": "uint256",
          "name": "_amount",
          "type": "uint256"
        }
      ],
      "name": "airdropERC1155",
      "outputs": [],
      "stateMutability": "nonpayable",
      "type": "function"
    },
    {
      "inputs": [
        {
          "internalType": "address",
          "name": "_tokenContract",
          "type": "address"
        },
        {
          "internalType": "address",
          "name": "_tokenOwner",
          "type": "address"
        },
        {
          "internalType": "address[]",
          "name": "_recipients",
          "type": "address[]"
        },
        {
          "internalType": "uint256[]",
          "name": "_tokenIds",
          "type": "uint256[]"
        }
      ],
      "name": "airdropERC721",
      "outputs": [],
      "stateMutability": "nonpayable",
      "type": "function"
    }
  ],
  "transactionHash": "0x337d4da988f7460786372210d110fa7602d544f0514942c8870883a1e8bcc757",
  "args": [],
  "numDeployments": 1,
  "solcInputHash": "cc75285d48a2f41ce3a430d99360b3e1",
  "bytecode": "0x608060405234801561001057600080fd5b5060016000556105f1806100256000396000f3fe608060405234801561001057600080fd5b50600436106100365760003560e01c80630f0368631461003b578063879afcc114610050575b600080fd5b61004e610049366004610433565b610063565b005b61004e61005e36600461050c565b6101e2565b61006b6102e0565b815181518082146100e95760405162461bcd60e51b815260206004820152603160248201527f526563697069656e7473206c656e67746820646f6573206e6f74206d6174636860448201527f20746f6b656e496473206c656e6774682e00000000000000000000000000000060648201526084015b60405180910390fd5b8560005b828110156101ce57816001600160a01b03166342842e0e888884815181106101175761011761057c565b60200260200101518885815181106101315761013161057c565b60209081029190910101516040517fffffffff0000000000000000000000000000000000000000000000000000000060e086901b1681526001600160a01b0393841660048201529290911660248301526044820152606401600060405180830381600087803b1580156101a357600080fd5b505af11580156101b7573d6000803e3d6000fd5b5050505080806101c690610592565b9150506100ed565b505050506101dc6001600055565b50505050565b6101ea6102e0565b82518560005b828110156102cc57816001600160a01b031663f242432a8888848151811061021a5761021a61057c565b60209081029190910101516040517fffffffff0000000000000000000000000000000000000000000000000000000060e085901b1681526001600160a01b03928316600482015291166024820152604481018890526064810187905260a06084820152600060a482015260c401600060405180830381600087803b1580156102a157600080fd5b505af11580156102b5573d6000803e3d6000fd5b5050505080806102c490610592565b9150506101f0565b5050506102d96001600055565b5050505050565b600260005414156103335760405162461bcd60e51b815260206004820152601f60248201527f5265656e7472616e637947756172643a207265656e7472616e742063616c6c0060448201526064016100e0565b6002600055565b80356001600160a01b038116811461035157600080fd5b919050565b634e487b7160e01b600052604160045260246000fd5b604051601f8201601f1916810167ffffffffffffffff8111828210171561039557610395610356565b604052919050565b600067ffffffffffffffff8211156103b7576103b7610356565b5060051b60200190565b600082601f8301126103d257600080fd5b813560206103e76103e28361039d565b61036c565b82815260059290921b8401810191818101908684111561040657600080fd5b8286015b848110156104285761041b8161033a565b835291830191830161040a565b509695505050505050565b6000806000806080858703121561044957600080fd5b6104528561033a565b9350602061046181870161033a565b9350604086013567ffffffffffffffff8082111561047e57600080fd5b61048a89838a016103c1565b945060608801359150808211156104a057600080fd5b508601601f810188136104b257600080fd5b80356104c06103e28261039d565b81815260059190911b8201830190838101908a8311156104df57600080fd5b928401925b828410156104fd578335825292840192908401906104e4565b979a9699509497505050505050565b600080600080600060a0868803121561052457600080fd5b61052d8661033a565b945061053b6020870161033a565b9350604086013567ffffffffffffffff81111561055757600080fd5b610563888289016103c1565b9598949750949560608101359550608001359392505050565b634e487b7160e01b600052603260045260246000fd5b60006000198214156105b457634e487b7160e01b600052601160045260246000fd5b506001019056fea2646970667358221220f83f303b7d3329f0260f0a9c6cd9698409512e63c6429301155a83722830606564736f6c634300080b0033",
  "devdoc": {
    "kind": "dev",
    "methods": {},
    "version": 1
  },
  "userdoc": {
    "kind": "user",
    "methods": {},
    "version": 1
  },
  "storageLayout": {
    "storage": [
      {
        "astId": 10,
        "contract": "contracts/MemberrAirdropper.sol:MemberrAirdropper",
        "label": "_status",
        "offset": 0,
        "slot": "0",
        "type": "t_uint256"
      }
    ],
    "types": {
      "t_uint256": {
        "encoding": "inplace",
        "label": "uint256",
        "numberOfBytes": "32"
      }
    }
  }
}